:020000040800F2
:1000000000000120D5010008250200082502000893
:100010002502000825020008250200080000000053
:1000200000000000000000000000000025020008A1
:10003000250200080000000025020008F103000866
:1000400025020008250200082502000825020008F4
:1000500025020008250200082502000825020008E4
:1000600025020008250200082502000825020008D4
:1000700025020008250200082502000825020008C4
:1000800025020008250200082502000800000000E3
:100090000000000000000000000000002502000831
:1000A0002502000825020008250200082502000894
:1000B0002502000825020008250200082502000884
:1000C0002502000825020008250200082502000874
:1000D0002502000825020008250200080000000093
:1000E0002502000825020008250200080000000083
:1000F00000000000000000000000000025020008D1
:100100000000000025020008250200082502000862
:1001100000000000000000000000000000000000DF
:100120002502000825020008250200082502000813
:100130002502000800000000000000000000000090
:100140000000000000000000000000002502000880
:1001500025020008250200082502000825020008E3
:100160002502000825020008000000000000000031
:10017000000000000000000000000000000000007F
:100180000000000025020008000000000000000040
:04019000250200083C
:1001940010B5054C237833B9044B13B10448AFF3BD
:1001A40000800123237010BD18000020000000000F
:1001B4001C06000808B5034B1BB103490348AFF301
:1001C400008008BD000000001C0000201C06000880
:1001D400DFF834D0002103E00C4B5B58435004316A
:1001E4000B480C4B42189A42F6D30B4A02E0002308
:1001F40042F8043B094B9A42F9D300F013F800F09B
:10020400E7F900F0BFF97047000001206C06000810
:1002140000000020180000201800002060000020CA
:10022400FEE70000024B4FF000629A60704700BF87
:1002340000ED00E038B5094C04F112052379E078AB
:100244000122002100F032F8A278617814F8060B3C
:1002540000F022F9AC42F1D138BD00BF000000200B
:10026400032810B40C4617D801294FF0060316D8FA
:100274000D4958430B185A7932B9085C597804B9B6
:10028400012210BC00F03DB9012A0AD1085C59785A
:10029400002CF6D12246F4E7052010BC704718461E
:1002A400FBE70720F9E700BF0000002010B500F0CD
:1002B4003F041F2C62D8090F032961D8012B61D890
:1002C400012A31D102FA04F0304CABB902290BD027
:1002D40003290DD0012903D0226B1043206315E0BC
:1002E400626B1043606311E0226C104320640DE0E4
:1002F400626C1043606409E002290DD003290FD019
:10030400012905D0226D104320650023184610BD35
:10031400626D10436065F8E7226E10432066F4E7CF
:10032400626E10436066F0E772BB0120A040C043D8
:10033400164C8BB9022909D003290AD0012902D00D
:10034400226B1040CAE7626B1040CBE7226C10406E
:10035400CCE7626C1040CDE7022909D003290AD00A
:10036400012902D0236D1840CEE7636D1840D1E710
:10037400236E1840D2E7636E1840D3E70823C5E71D
:100384000923C3E70A23C1E70C23BFE7003802406F
:10039400094B002140F2CF7259605A601A6822F06A
:1003A40007021A601A6842F004021A601A6842F0DE
:1003B40002021A609960704710E000E0024A136874
:1003C40043F001031360704710E000E030B139B12D
:1003D400044B1860044B00201960704701207047DB
:1003E400022070473800002034000020074A1368B8
:1003F40001331360064A116839B1064A1068B3FB29
:10040400F0F200FB123303B9084770473C000020A8
:10041400380000203400002070B50E4C0E4E2268C7
:1004240001322260002556F825302BB1196819B124
:100434009A682AB1013A9A600135072DF3D170BD4B
:100444002068DA68B0FBF2F302FB1303002BF3D14C
:100454008847F1E75C0000204000002008B5FFF762
:1004640097FF01210248BDE80840FFF7AFBF00BF76
:100474001D040008FFF7A2BF40B14168054A52F8C5
:1004840021302BB942F821001846704701207047EB
:1004940002207047400000200528F0B52DD80F2910
:1004A4002DD800F58010803080024E0003230768A9
:1004B400B34002F00304DB4304FA06FC1F40013C92
:1004C40047EA0C07012CC2F3C10507600ED80124CA
:1004D40004FA01F7C2F38002446802FA01F1826867
:1004E40024EA070421431A4041608260C268B5408F
:1004F40013402B43C3600020F0BD0120FCE7022021
:10050400FAE7052814D80F2914D8012A14D800F5BD
:10051400801000F1800018BF10314FEA802016BF10
:10052400012302FA01F103FA01F18161002070470D
:10053400012070470220704704207047044B19784B
:10054400B1FA81F1490900201970FFF789BE00BF93
:1005540012000020044B1978B1FA81F149090120F5
:100564001970FFF77DBE00BF13000020044B1978FB
:10057400B1FA81F1490901201970FFF771BE00BF7A
:100584001400002080B5114C8CB0FFF753FEFFF728
:1005940065FF94E80F006F4687E80F0004F110032D
:1005A4000FCB04AE203486E80F0094E80F0008ADAA
:1005B40085E80F003846FFF75FFF3046FFF75CFF22
:1005C4002846FFF759FFFFF755FFFEE734060008FA
:1005D40070B50D4E0D4CA41BA4100025A54209D1E5
:1005E4000B4E0C4C00F018F8A41BA4100025A542D7
:1005F40005D170BD56F8253098470135EEE756F819
:10060400253098470135F2E76406000864060008BF
:100614006406000868060008F8B500BFF8BC08BC0A
:100624009E467047F8B500BFF8BC08BC9E467047AC
:100634004105000800000000000000000200000066
:10064400590500080100000001000000030000003B
:100654007105000802000000020000000400000010
:04066400B9010008D0
:0406680095010008F0
:10066C00000009000000000209000000000000006A
:08067C00000001010100000073
:04000005080001D519
:00000001FF
