:020000040800F2
:1000000000000120D5010008250200082502000893
:100010002502000825020008250200080000000053
:1000200000000000000000000000000025020008A1
:10003000250200080000000025020008C104000895
:1000400025020008250200082502000825020008F4
:1000500025020008250200082502000825020008E4
:1000600025020008250200082502000825020008D4
:1000700025020008250200082502000825020008C4
:1000800025020008250200082502000800000000E3
:100090000000000000000000000000002502000831
:1000A0002502000825020008250200082502000894
:1000B0002502000825020008250200082502000884
:1000C0002502000825020008250200082502000874
:1000D0002502000825020008250200080000000093
:1000E0002502000825020008250200080000000083
:1000F00000000000000000000000000025020008D1
:100100000000000025020008250200082502000862
:1001100000000000000000000000000000000000DF
:100120002502000825020008250200082502000813
:100130002502000800000000000000000000000090
:100140000000000000000000000000002502000880
:1001500025020008250200082502000825020008E3
:100160002502000825020008000000000000000031
:10017000000000000000000000000000000000007F
:100180000000000025020008000000000000000040
:04019000250200083C
:1001940010B5054C237833B9044B13B10448AFF3BD
:1001A40000800123237010BD18000020000000000F
:1001B400DC06000808B5034B1BB103490348AFF341
:1001C400008008BD000000001C000020DC060008C0
:1001D400DFF834D0002103E00C4B5B58435004316A
:1001E4000B480C4B42189A42F6D30B4A02E0002308
:1001F40042F8043B094B9A42F9D300F013F800F09B
:1002040047FA00F01BFA7047000001200C070008B1
:1002140000000020180000201800002068000020C2
:10022400FEE70000024B4FF000629A60704700BF87
:1002340000ED00E010B50C4C01222379E078002198
:1002440000F09CF8A2786178207800F08DF9A37A08
:10025400607A0122002100F091F8227AE179A079F4
:10026400BDE8104000F080B900000020022810B45E
:100274000C4617D801294FF0060316D80D495843E8
:100284000B185A7932B9085C597804B9012210BCA8
:1002940000F09FB9012A0AD1085C5978002CF6D1E4
:1002A4002246F4E7052010BC70471846FBE70720F8
:1002B400F9E700BF0000002010B50C4C012223799F
:1002C400E078002100F05AF8A2786178207800F0F4
:1002D4004BF9637A207A0122002100F04FF8E27989
:1002E400A1796079BDE8104000F03EB90C0000200F
:1002F400012808B50A460CD859B1074B00EB800019
:100304001918185C497800F081F9003018BF0120F1
:1003140008BD0120FCE700BF0C00002073B50E4EA1
:100324000E4D00240DF107012046FFF7E1FF50B9FF
:100334009DF80720A35D93420CD12B5D042B07D8B5
:1003440001332B5532550CB102B070BD0124E9E7DD
:10035400034BE2542855F5E7380000203400002010
:100364003600002001289FBF034B1B5C0B7000204C
:1003740088BF0120704700BF3600002010B500F090
:100384003F041F2C62D8090F032961D8012B61D8BF
:10039400012A31D102FA04F0304CABB902290BD056
:1003A40003290DD0012903D0226B1043206315E0EB
:1003B400626B1043606311E0226C104320640DE013
:1003C400626C1043606409E002290DD003290FD048
:1003D400012905D0226D104320650023184610BD65
:1003E400626D10436065F8E7226E10432066F4E7FF
:1003F400626E10436066F0E772BB0120A040C04308
:10040400164C8BB9022909D003290AD0012902D03C
:10041400226B1040CAE7626B1040CBE7226C10409D
:10042400CCE7626C1040CDE7022909D003290AD039
:10043400012902D0236D1840CEE7636D1840D1E73F
:10044400236E1840D2E7636E1840D3E70823C5E74C
:100454000923C3E70A23C1E70C23BFE7003802409E
:10046400094B002140F2CF7259605A601A6822F099
:1004740007021A601A6842F004021A601A6842F00D
:1004840002021A609960704710E000E0024A1368A3
:1004940043F001031360704710E000E030B139B15C
:1004A400044B1860044B002019607047012070470A
:1004B40002207047400000203C000020074A1368D7
:1004C40001331360064A116839B1064A1068B3FB58
:1004D400F0F200FB123303B90847704744000020D0
:1004E400400000203C00002070B50E4C0E4E2268E7
:1004F40001322260002556F825302BB1196819B154
:100504009A682AB1013A9A600135072DF3D170BD7A
:100514002068DA68B0FBF2F302FB1303002BF3D17B
:100524008847F1E7640000204800002008B5FFF781
:1005340097FF01210248BDE80840FFF7AFBF00BFA5
:10054400ED040008FFF7A2BF40B14168054A52F824
:1005540021302BB942F8210018467047012070471A
:1005640002207047480000200528F0B52DD80F2937
:100574002DD800F58010803080024E0003230768D8
:10058400B34002F00304DB4304FA06FC1F40013CC1
:1005940047EA0C07012CC2F3C10507600ED80124F9
:1005A40004FA01F7C2F38002446802FA01F1826896
:1005B40024EA070421431A4041608260C268B540BE
:1005C40013402B43C3600020F0BD0120FCE7022050
:1005D400FAE7052814D80F2914D8012A14D800F5ED
:1005E400801000F1800018BF10314FEA802016BF40
:1005F400012302FA01F103FA01F18161002070473D
:1006040001207047022070470420704705280ED847
:100614000F290ED87AB100F580108030800203696A
:1006240023FA01F101F0010111700020704701204B
:1006340070470220704705207047000030B587B02E
:10064400FFF73AFEFFF7F6FDFFF770FF0F4B0FCBF6
:1006540002AC84E80F002046FFF776FFFFF772FF35
:100664000024E5B20DF107012846FFF77BFE0146A1
:1006740028B99DF8073033B12846FFF7F7FD002C61
:10068400EED10124EDE70121F6E700BFF4060008EE
:1006940070B50D4E0D4CA41BA4100025A54209D124
:1006A4000B4E0C4C00F018F8A41BA4100025A54216
:1006B40005D170BD56F8253098470135EEE756F858
:1006C400253098470135F2E70407000804070008BD
:1006D4000407000808070008F8B500BFF8BC08BC08
:1006E4009E467047F8B500BFF8BC08BC9E467047EC
:1006F40021030008000000000000000001000000C9
:04070400B90100082F
:04070800950100084F
:10070C0000000900000000010900000001000801C0
:08071C000001011001000000C2
:04000005080001D519
:00000001FF
